{
  "_format": "hh-sol-artifact-1",
  "contractName": "AgentPay",
  "sourceName": "contracts/AgentPay.sol",
  "abi": [
    {
      "anonymous": false,
      "inputs": [
        {
          "indexed": true,
          "internalType": "address",
          "name": "owner",
          "type": "address"
        },
        {
          "indexed": false,
          "internalType": "uint256",
          "name": "amount",
          "type": "uint256"
        }
      ],
      "name": "FundsWithdrawn",
      "type": "event"
    },
    {
      "anonymous": false,
      "inputs": [
        {
          "indexed": true,
          "internalType": "uint256",
          "name": "paywallId",
          "type": "uint256"
        },
        {
          "indexed": true,
          "internalType": "address",
          "name": "payer",
          "type": "address"
        },
        {
          "indexed": false,
          "internalType": "uint256",
          "name": "amount",
          "type": "uint256"
        }
      ],
      "name": "PaymentReceived",
      "type": "event"
    },
    {
      "anonymous": false,
      "inputs": [
        {
          "indexed": true,
          "internalType": "uint256",
          "name": "id",
          "type": "uint256"
        },
        {
          "indexed": true,
          "internalType": "address",
          "name": "owner",
          "type": "address"
        },
        {
          "indexed": false,
          "internalType": "string",
          "name": "name",
          "type": "string"
        },
        {
          "indexed": false,
          "internalType": "uint256",
          "name": "price",
          "type": "uint256"
        }
      ],
      "name": "PaywallRegistered",
      "type": "event"
    },
    {
      "inputs": [
        {
          "internalType": "address",
          "name": "",
          "type": "address"
        }
      ],
      "name": "balances",
      "outputs": [
        {
          "internalType": "uint256",
          "name": "",
          "type": "uint256"
        }
      ],
      "stateMutability": "view",
      "type": "function"
    },
    {
      "inputs": [
        {
          "internalType": "uint256",
          "name": "_paywallId",
          "type": "uint256"
        }
      ],
      "name": "pay",
      "outputs": [],
      "stateMutability": "payable",
      "type": "function"
    },
    {
      "inputs": [
        {
          "internalType": "uint256",
          "name": "_paywallId",
          "type": "uint256"
        }
      ],
      "name": "payWithBalance",
      "outputs": [],
      "stateMutability": "payable",
      "type": "function"
    },
    {
      "inputs": [],
      "name": "paywallCount",
      "outputs": [
        {
          "internalType": "uint256",
          "name": "",
          "type": "uint256"
        }
      ],
      "stateMutability": "view",
      "type": "function"
    },
    {
      "inputs": [
        {
          "internalType": "uint256",
          "name": "",
          "type": "uint256"
        }
      ],
      "name": "paywalls",
      "outputs": [
        {
          "internalType": "address payable",
          "name": "owner",
          "type": "address"
        },
        {
          "internalType": "string",
          "name": "name",
          "type": "string"
        },
        {
          "internalType": "uint256",
          "name": "price",
          "type": "uint256"
        },
        {
          "internalType": "bool",
          "name": "active",
          "type": "bool"
        }
      ],
      "stateMutability": "view",
      "type": "function"
    },
    {
      "inputs": [
        {
          "internalType": "string",
          "name": "_name",
          "type": "string"
        },
        {
          "internalType": "uint256",
          "name": "_price",
          "type": "uint256"
        }
      ],
      "name": "registerPaywall",
      "outputs": [],
      "stateMutability": "nonpayable",
      "type": "function"
    },
    {
      "inputs": [],
      "name": "withdraw",
      "outputs": [],
      "stateMutability": "nonpayable",
      "type": "function"
    },
    {
      "inputs": [],
      "name": "withdrawFunds",
      "outputs": [],
      "stateMutability": "nonpayable",
      "type": "function"
    }
  ],
  "bytecode": "0x608060405234801561001057600080fd5b50611316806100206000396000f3fe60806040526004361061007b5760003560e01c80633ccfd60b1161004e5780633ccfd60b1461013f5780634f22d69b14610156578063c290d6911461017f578063efc5c2131461019b5761007b565b8063230abe001461008057806324600fc3146100c057806327e235e3146100d75780632adc75e514610114575b600080fd5b34801561008c57600080fd5b506100a760048036038101906100a29190610914565b6101b7565b6040516100b79493929190610a3c565b60405180910390f35b3480156100cc57600080fd5b506100d561029c565b005b3480156100e357600080fd5b506100fe60048036038101906100f99190610ac6565b610466565b60405161010b9190610af3565b60405180910390f35b34801561012057600080fd5b5061012961047e565b6040516101369190610af3565b60405180910390f35b34801561014b57600080fd5b50610154610484565b005b34801561016257600080fd5b5061017d60048036038101906101789190610c43565b610507565b005b61019960048036038101906101949190610914565b61064e565b005b6101b560048036038101906101b09190610914565b61074f565b005b60006020528060005260406000206000915090508060000160009054906101000a900473ffffffffffffffffffffffffffffffffffffffff169080600101805461020090610cce565b80601f016020809104026020016040519081016040528092919081815260200182805461022c90610cce565b80156102795780601f1061024e57610100808354040283529160200191610279565b820191906000526020600020905b81548152906001019060200180831161025c57829003601f168201915b5050505050908060020154908060030160009054906101000a900460ff16905084565b6000600260003373ffffffffffffffffffffffffffffffffffffffff1673ffffffffffffffffffffffffffffffffffffffff16815260200190815260200160002054905060008111610323576040517f08c379a000000000000000000000000000000000000000000000000000000000815260040161031a90610d4b565b60405180910390fd5b6000600260003373ffffffffffffffffffffffffffffffffffffffff1673ffffffffffffffffffffffffffffffffffffffff1681526020019081526020016000208190555060003373ffffffffffffffffffffffffffffffffffffffff168260405161038e90610d9c565b60006040518083038185875af1925050503d80600081146103cb576040519150601f19603f3d011682016040523d82523d6000602084013e6103d0565b606091505b5050905080610414576040517f08c379a000000000000000000000000000000000000000000000000000000000815260040161040b90610dfd565b60405180910390fd5b3373ffffffffffffffffffffffffffffffffffffffff167feaff4b37086828766ad3268786972c0cd24259d4c87a80f9d3963a3c3d999b0d8360405161045a9190610af3565b60405180910390a25050565b60026020528060005260406000206000915090505481565b60015481565b6000479050600081116104cc576040517f08c379a00000000000000000000000000000000000000000000000000000000081526004016104c390610d4b565b60405180910390fd5b6040517f08c379a00000000000000000000000000000000000000000000000000000000081526004016104fe90610e69565b60405180910390fd5b6001600081548092919061051a90610eb8565b919050555060405180608001604052803373ffffffffffffffffffffffffffffffffffffffff16815260200183815260200182815260200160011515815250600080600154815260200190815260200160002060008201518160000160006101000a81548173ffffffffffffffffffffffffffffffffffffffff021916908373ffffffffffffffffffffffffffffffffffffffff16021790555060208201518160010190816105c991906110ac565b506040820151816002015560608201518160030160006101000a81548160ff0219169083151502179055509050503373ffffffffffffffffffffffffffffffffffffffff166001547f7541f42589c0bcecd358cb84a4c495bdcf1a4956758e6c95aca373f8386aa4d4848460405161064292919061117e565b60405180910390a35050565b600080600083815260200190815260200160002090508060030160009054906101000a900460ff166106b5576040517f08c379a00000000000000000000000000000000000000000000000000000000081526004016106ac90611220565b60405180910390fd5b80600201543410156106fc576040517f08c379a00000000000000000000000000000000000000000000000000000000081526004016106f39061128c565b60405180910390fd5b3373ffffffffffffffffffffffffffffffffffffffff16827f4d3f6d68b42e1e039d6e7323b2b8bdeaf223f453882ce17a5984f4d6aabbdb33346040516107439190610af3565b60405180910390a35050565b600080600083815260200190815260200160002090508060030160009054906101000a900460ff166107b6576040517f08c379a00000000000000000000000000000000000000000000000000000000081526004016107ad90611220565b60405180910390fd5b80600201543410156107fd576040517f08c379a00000000000000000000000000000000000000000000000000000000081526004016107f49061128c565b60405180910390fd5b34600260008360000160009054906101000a900473ffffffffffffffffffffffffffffffffffffffff1673ffffffffffffffffffffffffffffffffffffffff1673ffffffffffffffffffffffffffffffffffffffff168152602001908152602001600020600082825461087091906112ac565b925050819055503373ffffffffffffffffffffffffffffffffffffffff16827f4d3f6d68b42e1e039d6e7323b2b8bdeaf223f453882ce17a5984f4d6aabbdb33346040516108be9190610af3565b60405180910390a35050565b6000604051905090565b600080fd5b600080fd5b6000819050919050565b6108f1816108de565b81146108fc57600080fd5b50565b60008135905061090e816108e8565b92915050565b60006020828403121561092a576109296108d4565b5b6000610938848285016108ff565b91505092915050565b600073ffffffffffffffffffffffffffffffffffffffff82169050919050565b600061096c82610941565b9050919050565b61097c81610961565b82525050565b600081519050919050565b600082825260208201905092915050565b60005b838110156109bc5780820151818401526020810190506109a1565b60008484015250505050565b6000601f19601f8301169050919050565b60006109e482610982565b6109ee818561098d565b93506109fe81856020860161099e565b610a07816109c8565b840191505092915050565b610a1b816108de565b82525050565b60008115159050919050565b610a3681610a21565b82525050565b6000608082019050610a516000830187610973565b8181036020830152610a6381866109d9565b9050610a726040830185610a12565b610a7f6060830184610a2d565b95945050505050565b6000610a9382610941565b9050919050565b610aa381610a88565b8114610aae57600080fd5b50565b600081359050610ac081610a9a565b92915050565b600060208284031215610adc57610adb6108d4565b5b6000610aea84828501610ab1565b91505092915050565b6000602082019050610b086000830184610a12565b92915050565b600080fd5b600080fd5b7f4e487b7100000000000000000000000000000000000000000000000000000000600052604160045260246000fd5b610b50826109c8565b810181811067ffffffffffffffff82111715610b6f57610b6e610b18565b5b80604052505050565b6000610b826108ca565b9050610b8e8282610b47565b919050565b600067ffffffffffffffff821115610bae57610bad610b18565b5b610bb7826109c8565b9050602081019050919050565b82818337600083830152505050565b6000610be6610be184610b93565b610b78565b905082815260208101848484011115610c0257610c01610b13565b5b610c0d848285610bc4565b509392505050565b600082601f830112610c2a57610c29610b0e565b5b8135610c3a848260208601610bd3565b91505092915050565b60008060408385031215610c5a57610c596108d4565b5b600083013567ffffffffffffffff811115610c7857610c776108d9565b5b610c8485828601610c15565b9250506020610c95858286016108ff565b9150509250929050565b7f4e487b7100000000000000000000000000000000000000000000000000000000600052602260045260246000fd5b60006002820490506001821680610ce657607f821691505b602082108103610cf957610cf8610c9f565b5b50919050565b7f4e6f2066756e647320746f207769746864726177000000000000000000000000600082015250565b6000610d3560148361098d565b9150610d4082610cff565b602082019050919050565b60006020820190508181036000830152610d6481610d28565b9050919050565b600081905092915050565b50565b6000610d86600083610d6b565b9150610d9182610d76565b600082019050919050565b6000610da782610d79565b9150819050919050565b7f4661696c656420746f2073656e64204574686572000000000000000000000000600082015250565b6000610de760148361098d565b9150610df282610db1565b602082019050919050565b60006020820190508181036000830152610e1681610dda565b9050919050565b7f557365207769746864726177466f7250617977616c6c20696e73746561640000600082015250565b6000610e53601e8361098d565b9150610e5e82610e1d565b602082019050919050565b60006020820190508181036000830152610e8281610e46565b9050919050565b7f4e487b7100000000000000000000000000000000000000000000000000000000600052601160045260246000fd5b6000610ec3826108de565b91507fffffffffffffffffffffffffffffffffffffffffffffffffffffffffffffffff8203610ef557610ef4610e89565b5b600182019050919050565b60008190508160005260206000209050919050565b60006020601f8301049050919050565b600082821b905092915050565b600060088302610f627fffffffffffffffffffffffffffffffffffffffffffffffffffffffffffffffff82610f25565b610f6c8683610f25565b95508019841693508086168417925050509392505050565b6000819050919050565b6000610fa9610fa4610f9f846108de565b610f84565b6108de565b9050919050565b6000819050919050565b610fc383610f8e565b610fd7610fcf82610fb0565b848454610f32565b825550505050565b600090565b610fec610fdf565b610ff7818484610fba565b505050565b5b8181101561101b57611010600082610fe4565b600181019050610ffd565b5050565b601f8211156110605761103181610f00565b61103a84610f15565b81016020851015611049578190505b61105d61105585610f15565b830182610ffc565b50505b505050565b600082821c905092915050565b600061108360001984600802611065565b1980831691505092915050565b600061109c8383611072565b9150826002028217905092915050565b6110b582610982565b67ffffffffffffffff8111156110ce576110cd610b18565b5b6110d88254610cce565b6110e382828561101f565b600060209050601f8311600181146111165760008415611104578287015190505b61110e8582611090565b865550611176565b601f19841661112486610f00565b60005b8281101561114c57848901518255600182019150602085019450602081019050611127565b868310156111695784890151611165601f891682611072565b8355505b6001600288020188555050505b505050505050565b6000604082019050818103600083015261119881856109d9565b90506111a76020830184610a12565b9392505050565b7f50617977616c6c20646f6573206e6f74206578697374206f7220697320696e6160008201527f6374697665000000000000000000000000000000000000000000000000000000602082015250565b600061120a60258361098d565b9150611215826111ae565b604082019050919050565b60006020820190508181036000830152611239816111fd565b9050919050565b7f496e73756666696369656e74207061796d656e74000000000000000000000000600082015250565b600061127660148361098d565b915061128182611240565b602082019050919050565b600060208201905081810360008301526112a581611269565b9050919050565b60006112b7826108de565b91506112c2836108de565b92508282019050808211156112da576112d9610e89565b5b9291505056fea26469706673582212200e4dc070a3fd1748a0142361aaece3c79ace9ddc432fe857e3ac49aba95d036564736f6c63430008130033",
  "linkReferences": {},
  "deployedLinkReferences": {}
}